:020000040000FA
:060000000A128A11FC2F18
:100DFA0083160313081488140800700C8312031353
:100E0A00031C8813031888170800700C8312031335
:100E1A00031C0813031808170800700C8312031325
:100E2A00031C8812031888160800831603138812F5
:100E3A0008138813831203138812081388130800EF
:100E4A0083120313080C0139F200F3017208F0004F
:100E5A007308F100302F0800402F0130F0020030F3
:100E6A00031CF103F102C730F2003B2FF20B3A2FB9
:100E7A003E2F3F2F402F70087104031D452F462F28
:100E8A00322F472F0800F601F701DB2FDB2F013045
:100E9A00F6000030F700DB2F0A128A111A270A120D
:100EAA008A110A128A11FD260A128A110230F600E4
:100EBA000030F700DB2F0A128A1125270A128A113D
:100ECA0070037104031D6A2F6B2FDB2F0330F600AA
:100EDA000030F700DB2FDB2F0130F0000030F1008B
:100EEA000A128A1102270A128A110130F000003010
:100EFA00F1000A128A110A270A128A110030F00038
:100F0A00F1000A128A1112270A128A110430F60015
:100F1A000030F700DB2FD030F4000730F500053041
:100F2A00F6000030F700DB2F0130F0000030F1004E
:100F3A000A128A1131270A128A11FF30F40703189C
:100F4A00F50AFF30F5077508803AFF0080307F0206
:100F5A00031DB12F013074020318B42FB52FDB2FF4
:100F6A000630F6000030F700DB2FDB2F0130F000EF
:100F7A000030F1000A128A1102270A128A1100307F
:100F8A00F000F1000A128A110A270A128A110130A6
:100F9A00F0000030F1000A128A1112270A128A118F
:100FAA000730F6000030F700DB2FDB2F7708003A16
:100FBA000319E02FDB2F7608003A03194C2F013A68
:100FCA000319512F033A0319602F013A0319712F9C
:100FDA00073A0319902F013A0319992F033A031973
:100FEA00BB2FDB2FDB2FDB2F0A128A11002883018C
:060FFA000A128A11482FC3
:04400E00D4E0FFFFFC
:00000001FF
