:020000040000FA
:060000000A128A11FC2F18
:100E440083160313081488140800700C8312031308
:100E5400031C8813031888170800700C83120313EB
:100E6400031C0813031808170800700C83120313DB
:100E7400031C8812031888160800831603138812AB
:100E840008138813831203138812081388130800A5
:100E94008312031308080139F200F3017208F00009
:100EA4007308F100552F080083120313080C01394D
:100EB400F200F3017208F0007308F100612F0800DA
:100EC40083120313080D080D0139F200F3017208AF
:100ED400F0007308F1006E2F08007E2FFF30F0073A
:100EE4000318F10AFF30F107C730F200792FF20B33
:100EF400782F7C2F7D2F7E2F70087104031D832F84
:100F0400842F702F852F08000A128A113F270A1296
:100F14008A110A128A1122270A128A11912F0A129F
:100F24008A1156270A128A1170037104031D9B2F1C
:100F34009C2FD32F0A128A1162270A128A11700871
:100F44007104031DA62FA72FD32F0130F00000300A
:100F5400F1000A128A1127270A128A110130F000BF
:100F64000030F1000A128A112F270A128A11E83080
:100F7400F0000330F1000A128A116F270A128A1155
:100F84000030F000F1000A128A112F270A128A1188
:100F94000130F0000030F1000A128A1137270A12DA
:100FA4008A110A128A114A270A128A1170037104DB
:100FB400031DDD2FDE2F912F0030F000F1000A1207
:100FC4008A1127270A128A110030F000F1000A1250
:100FD4008A112F270A128A110030F000F1000A1238
:100FE4008A1137270A128A11912F912F912F0A12F1
:0C0FF4008A11002883010A128A11862F3E
:04400E00D4E0FFFFFC
:00000001FF
